:1008000080804020504844C34448502040808000AD
:100810004040424A7242427F4242625A4240400055
:1008200000028282828282FE8282828282020000B2
:10083000404040404040407F40404458404040009D
:100840000000FC2424242526242424FC000000008D
:100850000000FF81412103050911294542808000E4
:100860002030AC633000202CAB6AAA2A3A26A000C4
:1008700022672212120049492452897F020D10007A
:1008800040404242424242FE4242424242404000D6
:1008900080804020100C0300030C1020408080005A
:1008A000008060F80740300FF888888888080800C2
:1008B000010000FF00000000FF0808080808000011
:1008C0000010101010101116109050301000000081
:1008D0000040201010284442414040404040400029
:1008E000404020205048444344485020204040008D
:1008F000000000FE42424242424242FE000000002E
:100900000000FC24252624FC0000FE0222DA06005A
:100910000000FF41211509310000FF081008070001
:10092000101010101010D030FF1010101010100008
:1009300000201008040340807F0000000000000039
:1009400020202020A0702F202020E0202020200028
:10095000008080464528281018262140800000008D
:10096000445422AA518904FC2426252424FC000096
:1009700012124984423F8041310F013F41417000D2
:100980000002EAAAAAAAAAAFAAAAAAAAEA02000090
:100990000202FA4A4B4A4A4A4A4A4B4AFA020200BF
:1009A0002030AC632018084848487F484848080071
:1009B00022672212121200FE4242424242FE000010
:1009C0000000FE02129292929292921202FE000097
:1009D0000000FF00001F080808081F40807F00007B
:1009E0000000800000E002041800000040800000C9
:1009F000100C0300003F40404040407800010E00D2
:100A0000080889EE98007E42C24242C2427E00003F
:100A1000020100FF804320180700003F404078009B
:100A200040445465C664544400FC4444C4424000FD
:100A300020124A827F020A92601F0000FF0000001D
:100A400010F01F10F000FE4A2A0A1E294989E8000A
:100A500082651816610000FF4949494949FF0000B5
:100A600000E000FF1020080808FF0808F800000058
:100A7000010000FF008141310D030D3141818100F2
:100A80000000E09C848484F4828283828080000061
:100A9000002010080640807F00000204083000009B
:040EE900021C0001E6
:050EE300007FF7DFFEB7
:010EE80022E7
:020E9B00A907A5
:100E9D00E4FDFCF51A751B01FBFAE9FFE51B5F602C
:100EAD00047F0180027F00EF2DFDE43CFCC3EB9439
:100EBD0007EA94005007ED25E0FDEC33FCE51B251A
:100ECD00E0F51BE51A33F51A0BBB00010AEB6408BC
:050EDD004A70C7AF05DB
:010EE20022ED
:060E34008B148A158916DB
:100E3A00E4F517F518F519F51C751D01F517C3E545
:100E4A00179410748094805047AB14AA15A916857C
:100E5A001782758300120C41F4F58074102517F57A
:100E6A0082E433F583120C41F4F590851D19AF190C
:100E7A00120E9B8FA0E51CF5B0120EE3E51D25E0CE
:100E8A00F51DE51C33F51CE4F5A0F5B0051780AE99
:010E9A002235
:0A0DCC007BFF7F007E407D1C7C460B
:0E0DD6008B0B8A0C890D8F118E108D0F8C0ED9
:100DE400E4F512F513E4FBFA79057843AF11AE107C
:100DF400AD0FAC0E120AA3C004C005C006C007ACF8
:100E040012AD13E4120BBEA804A905AA06AB07D0C1
:100E140007D006D005D004120B405013AB0BAA0C1C
:0F0E2400A90D120E340513E51370BA051280B62E
:010E3300229C
:100C7C00E4F508F509750A017A087900120DCC7AA9
:100C8C00087920120DCC7BFF7A087940120DCE7BAF
:100C9C00FF7A087960120DCE7BFF7A087980120DED
:100CAC00CE7BFF7A0879A0120DCE7BFF7A0879C033
:100CBC00120DCE7BFF7A0879E0120DCE7BFF7A09FC
:100CCC007900120DCE7BFF7A097920120DCE7BFFB5
:100CDC007A097940120DCE7BFF7A097960120DCE1C
:100CEC007BFF7A097980120DCE7BFF7A0979A012ED
:100CFC000DCE7BFF7A0979C0120DCE7BFF7A097974
:100D0C00E0120DCE7BFF7A0A7900120DCE7BFF7AB2
:100D1C000A7920120DCE7BFF7A0A7940120DCE7B18
:100D2C00FF7A0A7960120DCE7BFF7A0A7980120D58
:040D3C00CE020C8453
:100AA000020C36EC5D046005E859047003020C2C5E
:100AB000120BF7580460F6EC4860F2EC7004FDFE8F
:100AC000FF22C860DB2481C85009C3986002500629
:100AD000020C339850CAF582E9294B4A7005AB8263
:100AE000020C2275F0007C1A7880C3EF9BEE9AED21
:100AF00099400DC3EF9BFFEE9AFEED99FDE842F0A1
:100B0000DC23ACF0D0E0FFD0E0FED0E0FDAB8220F3
:100B1000E7101BEB60BAEC2CFCEF33FFEE33FEED7D
:100B200033FD020C0EE803F830E705C0F075F00065
:100B3000EF2FFFEE33FEED33FD40B830E7C280AA61
:100B400074F8CC6480CCC86480C8F58204604FC35C
:100B5000EB9FF5F0EA9E42F0E99D42F0E89C45F0FB
:100B6000603C501DE5825FFFE582D313CB5BCBF485
:100B70002B5582FB50280ABA002409B900200880AE
:100B80001DE5825BFBE582D313CF5FCFF4C3132F48
:100B90005582FF50090EBE00050DBD00010CC3EBD0
:100BA0009FF5F0EA9E42F0E99D42F0E89C45F06036
:090BB00007CC4820E701B3EC2258
:100BB90075F020800E75F010800575F0087D007EB7
:100BC900007F003392D530D503120C6EEC33401000
:100BD900EF33FFEE33FEED33FDEC33FCD5F0ED22C0
:0E0BE900E5F0247EA2D513CC92E7CDCEFF22FC
:100BF700E9D2E7C933E833F892D5EDD2E7CD33EC44
:070C070033FC5002B2D522BC
:100C0E00EC30E7100FBF000C0EBE00080DBD000447
:100C1E000BEB6014A2D5EB13FCED92E7FD2274FFF3
:100C2E00FCFDFEFF22E480F8A2D574FF13FC7D804C
:030C3E00E480EF60
:03000000020D40AE
:0C0D4000787FE4F6D8FD75811D020D8758
:100C4100BB010CE58229F582E5833AF583E0225068
:100C510006E92582F8E622BBFE06E92582F8E222B2
:0D0C6100E58229F582E5833AF583E49322CC
:0E0C6E00C3E49FFFE49EFEE49DFDE49CFC2297
:100D4C00020C7CE493A3F8E493A34003F68001F235
:100D5C0008DFF48029E493A3F85407240CC8C333A8
:100D6C00C4540F4420C8834004F456800146F6DF77
:100D7C00E4800B0102040810204080900EE9E47E10
:100D8C00019360BCA3FF543F30E509541FFEE4936C
:100D9C00A360010ECF54C025E060A840B8E493A333
:100DAC00FAE493A3F8E493A3C8C582C8CAC583CA5E
:100DBC00F0A3C8C582C8CAC583CADFE9DEE780BE16
:010EED000004
:00000001FF
